{
  "abi": [
    {
      "inputs": [],
      "name": "args",
      "outputs": [
        {
          "internalType": "bytes",
          "name": "",
          "type": "bytes"
        }
      ],
      "stateMutability": "view",
      "type": "function"
    },
    {
      "inputs": [],
      "name": "binary_check",
      "outputs": [],
      "stateMutability": "nonpayable",
      "type": "function"
    },
    {
      "inputs": [
        {
          "internalType": "bytes",
          "name": "data",
          "type": "bytes"
        }
      ],
      "name": "bytesToString",
      "outputs": [
        {
          "internalType": "string",
          "name": "",
          "type": "string"
        }
      ],
      "stateMutability": "pure",
      "type": "function"
    },
    {
      "inputs": [],
      "name": "code",
      "outputs": [
        {
          "internalType": "string",
          "name": "",
          "type": "string"
        }
      ],
      "stateMutability": "view",
      "type": "function"
    },
    {
      "inputs": [
        {
          "internalType": "uint256",
          "name": "",
          "type": "uint256"
        }
      ],
      "name": "const_overrides",
      "outputs": [
        {
          "internalType": "string",
          "name": "key",
          "type": "string"
        },
        {
          "internalType": "string",
          "name": "value",
          "type": "string"
        }
      ],
      "stateMutability": "view",
      "type": "function"
    },
    {
      "inputs": [
        {
          "internalType": "string",
          "name": "file",
          "type": "string"
        }
      ],
      "name": "creation_code",
      "outputs": [
        {
          "internalType": "bytes",
          "name": "bytecode",
          "type": "bytes"
        }
      ],
      "stateMutability": "payable",
      "type": "function"
    },
    {
      "inputs": [
        {
          "internalType": "string",
          "name": "file",
          "type": "string"
        }
      ],
      "name": "creation_code_with_args",
      "outputs": [
        {
          "internalType": "bytes",
          "name": "bytecode",
          "type": "bytes"
        }
      ],
      "stateMutability": "payable",
      "type": "function"
    },
    {
      "inputs": [
        {
          "internalType": "string",
          "name": "file",
          "type": "string"
        }
      ],
      "name": "deploy",
      "outputs": [
        {
          "internalType": "address",
          "name": "",
          "type": "address"
        }
      ],
      "stateMutability": "payable",
      "type": "function"
    },
    {
      "inputs": [],
      "name": "deployer",
      "outputs": [
        {
          "internalType": "address",
          "name": "",
          "type": "address"
        }
      ],
      "stateMutability": "view",
      "type": "function"
    },
    {
      "inputs": [
        {
          "internalType": "bool",
          "name": "broadcast",
          "type": "bool"
        }
      ],
      "name": "set_broadcast",
      "outputs": [
        {
          "internalType": "contract HuffConfig",
          "name": "",
          "type": "address"
        }
      ],
      "stateMutability": "nonpayable",
      "type": "function"
    },
    {
      "inputs": [],
      "name": "should_broadcast",
      "outputs": [
        {
          "internalType": "bool",
          "name": "",
          "type": "bool"
        }
      ],
      "stateMutability": "view",
      "type": "function"
    },
    {
      "inputs": [],
      "name": "value",
      "outputs": [
        {
          "internalType": "uint256",
          "name": "",
          "type": "uint256"
        }
      ],
      "stateMutability": "view",
      "type": "function"
    },
    {
      "inputs": [],
      "name": "vm",
      "outputs": [
        {
          "internalType": "contract Vm",
          "name": "",
          "type": "address"
        }
      ],
      "stateMutability": "view",
      "type": "function"
    },
    {
      "inputs": [
        {
          "internalType": "string",
          "name": "key",
          "type": "string"
        },
        {
          "internalType": "address",
          "name": "value_",
          "type": "address"
        }
      ],
      "name": "with_addr_constant",
      "outputs": [
        {
          "internalType": "contract HuffConfig",
          "name": "",
          "type": "address"
        }
      ],
      "stateMutability": "nonpayable",
      "type": "function"
    },
    {
      "inputs": [
        {
          "internalType": "bytes",
          "name": "args_",
          "type": "bytes"
        }
      ],
      "name": "with_args",
      "outputs": [
        {
          "internalType": "contract HuffConfig",
          "name": "",
          "type": "address"
        }
      ],
      "stateMutability": "nonpayable",
      "type": "function"
    },
    {
      "inputs": [
        {
          "internalType": "string",
          "name": "key",
          "type": "string"
        },
        {
          "internalType": "bytes32",
          "name": "value_",
          "type": "bytes32"
        }
      ],
      "name": "with_bytes32_constant",
      "outputs": [
        {
          "internalType": "contract HuffConfig",
          "name": "",
          "type": "address"
        }
      ],
      "stateMutability": "nonpayable",
      "type": "function"
    },
    {
      "inputs": [
        {
          "internalType": "string",
          "name": "code_",
          "type": "string"
        }
      ],
      "name": "with_code",
      "outputs": [
        {
          "internalType": "contract HuffConfig",
          "name": "",
          "type": "address"
        }
      ],
      "stateMutability": "nonpayable",
      "type": "function"
    },
    {
      "inputs": [
        {
          "internalType": "string",
          "name": "key",
          "type": "string"
        },
        {
          "internalType": "string",
          "name": "value_",
          "type": "string"
        }
      ],
      "name": "with_constant",
      "outputs": [
        {
          "internalType": "contract HuffConfig",
          "name": "",
          "type": "address"
        }
      ],
      "stateMutability": "nonpayable",
      "type": "function"
    },
    {
      "inputs": [
        {
          "internalType": "address",
          "name": "_deployer",
          "type": "address"
        }
      ],
      "name": "with_deployer",
      "outputs": [
        {
          "internalType": "contract HuffConfig",
          "name": "",
          "type": "address"
        }
      ],
      "stateMutability": "nonpayable",
      "type": "function"
    },
    {
      "inputs": [
        {
          "internalType": "string",
          "name": "key",
          "type": "string"
        },
        {
          "internalType": "uint256",
          "name": "value_",
          "type": "uint256"
        }
      ],
      "name": "with_uint_constant",
      "outputs": [
        {
          "internalType": "contract HuffConfig",
          "name": "",
          "type": "address"
        }
      ],
      "stateMutability": "nonpayable",
      "type": "function"
    },
    {
      "inputs": [
        {
          "internalType": "uint256",
          "name": "value_",
          "type": "uint256"
        }
      ],
      "name": "with_value",
      "outputs": [
        {
          "internalType": "contract HuffConfig",
          "name": "",
          "type": "address"
        }
      ],
      "stateMutability": "nonpayable",
      "type": "function"
    }
  ],
  "bytecode": {
    "object": "0x6080604052600380546001600160a01b0319163017905534801561002257600080fd5b50612614806100326000396000f3fe60806040526004361061012a5760003560e01c80636b07af10116100ab578063c5effd021161006f578063c5effd0214610348578063c76023161461035f578063d5f3948814610372578063df9f3dee14610392578063e5df307614610287578063e9e68e1d146103cd57600080fd5b80636b07af10146102875780636fcef9d5146102a75780637dc2225f146102c75780638093a1b9146102e957806392bb10d71461030957600080fd5b806328764d14116100f257806328764d14146101e657806339614e4f146102065780633a768463146102265780633fa4f2451461024e5780634e9b75b61461027257600080fd5b80630c7d16811461012f5780630cc7661614610166578063220481ef146101865780632232d9081461019957806324c12bf6146101d1575b600080fd5b34801561013b57600080fd5b5061014f61014a366004611bd4565b6103fe565b60405161015d929190611c3d565b60405180910390f35b610179610174366004611d36565b610542565b60405161015d9190611d6a565b610179610194366004611d36565b610579565b3480156101a557600080fd5b506101b96101b4366004611d36565b61111e565b6040516001600160a01b03909116815260200161015d565b3480156101dd57600080fd5b50610179611133565b3480156101f257600080fd5b506101b9610201366004611d7d565b6111c1565b34801561021257600080fd5b50610179610221366004611d7d565b6111cf565b34801561023257600080fd5b506101b9737109709ecfa91a80626ff3989d68f67f5b1dd12d81565b34801561025a57600080fd5b5061026460025481565b60405190815260200161015d565b34801561027e57600080fd5b506101796113e7565b34801561029357600080fd5b506101b96102a2366004611dc5565b6113f4565b3480156102b357600080fd5b506101b96102c2366004611e25565b61147e565b3480156102d357600080fd5b506101b96102e2366004611bd4565b6002553090565b3480156102f557600080fd5b506101b9610304366004611e72565b6114bf565b34801561031557600080fd5b506101b9610324366004611ed5565b600380546001600160a01b0319166001600160a01b03929092169190911790553090565b34801561035457600080fd5b5061035d61151b565b005b6101b961036d366004611d36565b6116c2565b34801561037e57600080fd5b506003546101b9906001600160a01b031681565b34801561039e57600080fd5b506101b96103ad366004611ef0565b60038054911515600160a01b0260ff60a01b199092169190911790553090565b3480156103d957600080fd5b506003546103ee90600160a01b900460ff1681565b604051901515815260200161015d565b6004818154811061040e57600080fd5b906000526020600020906002020160009150905080600001805461043190611f12565b80601f016020809104026020016040519081016040528092919081815260200182805461045d90611f12565b80156104aa5780601f1061047f576101008083540402835291602001916104aa565b820191906000526020600020905b81548152906001019060200180831161048d57829003601f168201915b5050505050908060010180546104bf90611f12565b80601f01602080910402602001604051908101604052809291908181526020018280546104eb90611f12565b80156105385780601f1061050d57610100808354040283529160200191610538565b820191906000526020600020905b81548152906001019060200180831161051b57829003601f168201915b5050505050905082565b606061054d82610579565b9050806001604051602001610563929190611fbf565b6040516020818303038152906040529050919050565b606061058361151b565b60006105b68360408051808201825260008082526020918201528151808301909252825182529182019181019190915290565b60408051808201825260018152602f60f81b6020808301918252835180850185526000808252908201819052845180860190955292518452830152919250906105ff83836117c5565b61060a906001611ff3565b6001600160401b0381111561062157610621611c6b565b60405190808252806020026020018201604052801561065457816020015b606081526020019060019003908161063f5790505b50905060005b81518110156106a5576106756106708585611866565b611885565b82828151811061068757610687612006565b6020026020010181905250808061069d9061201c565b91505061065a565b50604080516001808252818301909252600091816020015b60608152602001906001900390816106bd5790505090506040518060600160405280602881526020016125b7602891398160008151811061070057610700612006565b6020908102919091010152604051638916046760e01b8152600090737109709ecfa91a80626ff3989d68f67f5b1dd12d90638916046790610745908590600401612035565b6000604051808303816000875af1158015610764573d6000803e3d6000fd5b505050506040513d6000823e601f3d908101601f1916820160405261078c9190810190612097565b905060006107c961079c83612104565b6040516020016107ae91815260200190565b604051602081830303815290604052805190602001206118ed565b90506000846000815181106107e0576107e0612006565b60200260200101519050600185511161081c578181604051602001610806929190612128565b60405160208183030381529060405290506108d2565b60015b6001865161082d919061216e565b811015610884578186828151811061084757610847612006565b6020026020010151604051602001610860929190612181565b6040516020818303038152906040529150808061087c9061201c565b91505061081f565b5080828660018851610896919061216e565b815181106108a6576108a6612006565b60200260200101516040516020016108c0939291906121bd565b60405160208183030381529060405290505b60408051600380825260808201909252600091816020015b60608152602001906001900390816108ea579050509050604051806060016040528060298152602001612561602991398160008151811061092d5761092d612006565b6020026020010181905250816040516020016109499190612221565b6040516020818303038152906040528160018151811061096b5761096b612006565b60200260200101819052506000604051602001610988919061225c565b604051602081830303815290604052816002815181106109aa576109aa612006565b6020908102919091010152604051638916046760e01b8152737109709ecfa91a80626ff3989d68f67f5b1dd12d906389160467906109ec908490600401612035565b6000604051808303816000875af1158015610a0b573d6000803e3d6000fd5b505050506040513d6000823e601f3d908101601f19168201604052610a339190810190612097565b5060408051600380825260808201909252600091816020015b6060815260200190600190039081610a4c5790505090506040518060600160405280602d815260200161258a602d913981600081518110610a8f57610a8f612006565b602002602001018190525082604051602001610aab9190612221565b60405160208183030381529060405281600181518110610acd57610acd612006565b60200260200101819052508a604051602001610ae99190612221565b60405160208183030381529060405281600281518110610b0b57610b0b612006565b6020908102919091010152604051638916046760e01b8152737109709ecfa91a80626ff3989d68f67f5b1dd12d90638916046790610b4d908490600401612035565b6000604051808303816000875af1158015610b6c573d6000803e3d6000fd5b505050506040513d6000823e601f3d908101601f19168201604052610b949190810190612097565b5060408051600380825260808201909252600091816020015b6060815260200190600190039081610bad57505060045490915015610e435760048054610bd991611ff3565b6001600160401b03811115610bf057610bf0611c6b565b604051908082528060200260200182016040528015610c2357816020015b6060815260200190600190039081610c0e5790505b509050604051806040016040528060028152602001612d6360f01b81525081600381518110610c5457610c54612006565b6020026020010181905250610c7c604051806040016040528060608152602001606081525090565b60005b600454811015610e405760048181548110610c9c57610c9c612006565b9060005260206000209060020201604051806040016040529081600082018054610cc590611f12565b80601f0160208091040260200160405190810160405280929190818152602001828054610cf190611f12565b8015610d3e5780601f10610d1357610100808354040283529160200191610d3e565b820191906000526020600020905b815481529060010190602001808311610d2157829003601f168201915b50505050508152602001600182018054610d5790611f12565b80601f0160208091040260200160405190810160405280929190818152602001828054610d8390611f12565b8015610dd05780601f10610da557610100808354040283529160200191610dd0565b820191906000526020600020905b815481529060010190602001808311610db357829003601f168201915b505050505081525050915081600001518260200151604051602001610df6929190612279565b60408051601f1981840301815291905283610e12836004611ff3565b81518110610e2257610e22612006565b60200260200101819052508080610e389061201c565b915050610c7f565b50505b60405180604001604052806005815260200164687566666360d81b81525081600081518110610e7457610e74612006565b602002602001018190525083604051602001610e909190612221565b60405160208183030381529060405281600181518110610eb257610eb2612006565b60200260200101819052506040518060400160405280600281526020016116b160f11b81525081600281518110610eeb57610eeb612006565b6020908102919091010152604051638916046760e01b8152737109709ecfa91a80626ff3989d68f67f5b1dd12d90638916046790610f2d908490600401612035565b6000604051808303816000875af1158015610f4c573d6000803e3d6000fd5b505050506040513d6000823e601f3d908101601f19168201604052610f749190810190612097565b60408051600280825260608201909252919c5060009190816020015b6060815260200190600190039081610f9057905050905060405180604001604052806002815260200161726d60f01b81525081600081518110610fd557610fd5612006565b602002602001018190525084604051602001610ff19190612221565b6040516020818303038152906040528160018151811061101357611013612006565b602090810291909101015260035460405163ca669fa760e01b81526001600160a01b039091166004820152737109709ecfa91a80626ff3989d68f67f5b1dd12d9063ca669fa790602401600060405180830381600087803b15801561107757600080fd5b505af115801561108b573d6000803e3d6000fd5b5050604051638916046760e01b8152737109709ecfa91a80626ff3989d68f67f5b1dd12d9250638916046791506110c6908490600401612035565b6000604051808303816000875af11580156110e5573d6000803e3d6000fd5b505050506040513d6000823e601f3d908101601f1916820160405261110d9190810190612097565b505050505050505050505050919050565b60008061112b83826122f8565b503092915050565b6000805461114090611f12565b80601f016020809104026020016040519081016040528092919081815260200182805461116c90611f12565b80156111b95780601f1061118e576101008083540402835291602001916111b9565b820191906000526020600020905b81548152906001019060200180831161119c57829003601f168201915b505050505081565b6000600161112b83826122f8565b60408051808201909152601081526f181899199a1a9b1b9c1cb0b131b232b360811b602082015281516060919060009061120a9060026123b7565b611215906002611ff3565b6001600160401b0381111561122c5761122c611c6b565b6040519080825280601f01601f191660200182016040528015611256576020820181803683370190505b509050600360fc1b8160008151811061127157611271612006565b60200101906001600160f81b031916908160001a905350600f60fb1b816001815181106112a0576112a0612006565b60200101906001600160f81b031916908160001a90535060005b84518110156113df578260048683815181106112d8576112d8612006565b016020015182516001600160f81b031990911690911c60f81c90811061130057611300612006565b01602001516001600160f81b0319168261131b8360026123b7565b611326906002611ff3565b8151811061133657611336612006565b60200101906001600160f81b031916908160001a9053508285828151811061136057611360612006565b602091010151815160f89190911c600f1690811061138057611380612006565b01602001516001600160f81b0319168261139b8360026123b7565b6113a6906003611ff3565b815181106113b6576113b6612006565b60200101906001600160f81b031916908160001a905350806113d78161201c565b9150506112ba565b509392505050565b6001805461114090611f12565b6000600460405180604001604052808581526020016114338560405160200161141f91815260200190565b6040516020818303038152906040526111cf565b9052815460018101835560009283526020909220815191926002020190819061145c90826122f8565b506020820151600182019061147190826122f8565b5050503090505b92915050565b6000600460405180604001604052808581526020016114338560405160200161141f919060609190911b6bffffffffffffffffffffffff1916815260140190565b6040805180820190915282815260208101829052600480546001810182556000918252825191929160029091027f8a35acfbc15ff81a39ae7d344fd709f28e8600b4aa8c65c6b64bfe7fe36bd19b0190819061145c90826122f8565b604080516001808252818301909252600091816020015b60608152602001906001900390816115325790505090506040518060600160405280602a8152602001612537602a91398160008151811061157557611575612006565b6020908102919091010152604051638916046760e01b8152600090737109709ecfa91a80626ff3989d68f67f5b1dd12d906389160467906115ba908590600401612035565b6000604051808303816000875af11580156115d9573d6000803e3d6000fd5b505050506040513d6000823e601f3d908101601f191682016040526116019190810190612097565b905060008160008151811061161857611618612006565b01602001516001600160f81b0319169050600160f81b8114806116bc5760405162461bcd60e51b815260206004820152604b60248201527f496e76616c69642068756666632062696e6172792e2052756e20606375726c2060448201527f2d4c206765742e687566662e7368207c20626173686020616e6420606875666660648201526a3ab830103a37903334bc1760a91b608482015260a4015b60405180910390fd5b50505050565b6000806116ce83610542565b600354909150600090600160a01b900460ff161561174b57604080516302bf260160e61b81529051737109709ecfa91a80626ff3989d68f67f5b1dd12d9163afc9804091600480830192600092919082900301818387803b15801561173257600080fd5b505af1158015611746573d6000803e3d6000fd5b505050505b60025482516020840182f09150506001600160a01b0381166117be5760405162461bcd60e51b815260206004820152602660248201527f487566664465706c6f79657220636f756c64206e6f74206465706c6f7920636f6044820152651b9d1c9858dd60d21b60648201526084016116b3565b9392505050565b60008082600001516117e9856000015186602001518660000151876020015161198d565b6117f39190611ff3565b90505b835160208501516118079190611ff3565b811161185f57816118178161201c565b925050826000015161184e856020015183611832919061216e565b865161183e919061216e565b838660000151876020015161198d565b6118589190611ff3565b90506117f6565b5092915050565b604080518082019091526000808252602082015261185f838383611aaf565b6060600082600001516001600160401b038111156118a5576118a5611c6b565b6040519080825280601f01601f1916602001820160405280156118cf576020820181803683370190505b509050600060208201905061185f8185602001518660000151611b5a565b60608060005b602081101561185f5781601a85836020811061191157611911612006565b61191d9291901a6123ce565b6119289060616123fe565b60405160200161194b919060f89190911b6001600160f81b031916815260010190565b60408051601f19818403018152908290526119699291602001612417565b604051602081830303815290604052915080806119859061201c565b9150506118f3565b60008381868511611a985760208511611a4757600085156119d95760016119b587602061216e565b6119c09060086123b7565b6119cb90600261252a565b6119d5919061216e565b1990505b845181166000876119ea8b8b611ff3565b6119f4919061216e565b855190915083165b828114611a3957818610611a2157611a148b8b611ff3565b9650505050505050611aa7565b85611a2b8161201c565b9650508386511690506119fc565b859650505050505050611aa7565b508383206000905b611a59868961216e565b8211611a9657858320808203611a755783945050505050611aa7565b611a80600185611ff3565b9350508180611a8e9061201c565b925050611a4f565b505b611aa28787611ff3565b925050505b949350505050565b60408051808201909152600080825260208201526000611ae1856000015186602001518660000151876020015161198d565b602080870180519186019190915251909150611afd908261216e565b835284516020860151611b109190611ff3565b8103611b1f5760008552611b51565b83518351611b2d9190611ff3565b85518690611b3c90839061216e565b9052508351611b4b9082611ff3565b60208601525b50909392505050565b60208110611b925781518352611b71602084611ff3565b9250611b7e602083611ff3565b9150611b8b60208261216e565b9050611b5a565b6000198115611bc1576001611ba883602061216e565b611bb49061010061252a565b611bbe919061216e565b90505b9151835183169219169190911790915250565b600060208284031215611be657600080fd5b5035919050565b60005b83811015611c08578181015183820152602001611bf0565b50506000910152565b60008151808452611c29816020860160208601611bed565b601f01601f19169290920160200192915050565b604081526000611c506040830185611c11565b8281036020840152611c628185611c11565b95945050505050565b634e487b7160e01b600052604160045260246000fd5b604051601f8201601f191681016001600160401b0381118282101715611ca957611ca9611c6b565b604052919050565b60006001600160401b03821115611cca57611cca611c6b565b50601f01601f191660200190565b6000611ceb611ce684611cb1565b611c81565b9050828152838383011115611cff57600080fd5b828260208301376000602084830101529392505050565b600082601f830112611d2757600080fd5b6117be83833560208501611cd8565b600060208284031215611d4857600080fd5b81356001600160401b03811115611d5e57600080fd5b611aa784828501611d16565b6020815260006117be6020830184611c11565b600060208284031215611d8f57600080fd5b81356001600160401b03811115611da557600080fd5b8201601f81018413611db657600080fd5b611aa784823560208401611cd8565b60008060408385031215611dd857600080fd5b82356001600160401b03811115611dee57600080fd5b611dfa85828601611d16565b95602094909401359450505050565b80356001600160a01b0381168114611e2057600080fd5b919050565b60008060408385031215611e3857600080fd5b82356001600160401b03811115611e4e57600080fd5b611e5a85828601611d16565b925050611e6960208401611e09565b90509250929050565b60008060408385031215611e8557600080fd5b82356001600160401b0380821115611e9c57600080fd5b611ea886838701611d16565b93506020850135915080821115611ebe57600080fd5b50611ecb85828601611d16565b9150509250929050565b600060208284031215611ee757600080fd5b6117be82611e09565b600060208284031215611f0257600080fd5b813580151581146117be57600080fd5b600181811c90821680611f2657607f821691505b602082108103611f4657634e487b7160e01b600052602260045260246000fd5b50919050565b60008154611f5981611f12565b60018281168015611f715760018114611f8657611fb5565b60ff1984168752821515830287019450611fb5565b8560005260208060002060005b85811015611fac5781548a820152908401908201611f93565b50505082870194505b5050505092915050565b60008351611fd1818460208801611bed565b611c6281840185611f4c565b634e487b7160e01b600052601160045260246000fd5b8082018082111561147857611478611fdd565b634e487b7160e01b600052603260045260246000fd5b60006001820161202e5761202e611fdd565b5060010190565b6000602080830181845280855180835260408601915060408160051b870101925083870160005b8281101561208a57603f19888603018452612078858351611c11565b9450928501929085019060010161205c565b5092979650505050505050565b6000602082840312156120a957600080fd5b81516001600160401b038111156120bf57600080fd5b8201601f810184136120d057600080fd5b80516120de611ce682611cb1565b8181528560208385010111156120f357600080fd5b611c62826020830160208601611bed565b80516020808301519190811015611f465760001960209190910360031b1b16919050565b675f5f54454d505f5f60c01b81526000835161214b816008850160208801611bed565b835190830190612162816008840160208801611bed565b01600801949350505050565b8181038181111561147857611478611fdd565b60008351612193818460208801611bed565b602f60f81b90830190815283516121b1816001840160208801611bed565b01600101949350505050565b600084516121cf818460208901611bed565b602f60f81b908301908152675f5f54454d505f5f60c01b600182015284516121fe816009840160208901611bed565b8451910190612214816009840160208801611bed565b0160090195945050505050565b637372632f60e01b815260008251612240816004850160208701611bed565b6417343ab33360d91b6004939091019283015250600901919050565b60006122688284611f4c565b600560f91b81526001019392505050565b6000835161228b818460208801611bed565b603d60f81b90830190815283516121b1816001840160208801611bed565b601f8211156122f357600081815260208120601f850160051c810160208610156122d05750805b601f850160051c820191505b818110156122ef578281556001016122dc565b5050505b505050565b81516001600160401b0381111561231157612311611c6b565b6123258161231f8454611f12565b846122a9565b602080601f83116001811461235a57600084156123425750858301515b600019600386901b1c1916600185901b1785556122ef565b600085815260208120601f198616915b828110156123895788860151825594840194600190910190840161236a565b50858210156123a75787850151600019600388901b60f8161c191681555b5050505050600190811b01905550565b808202811582820484141761147857611478611fdd565b600060ff8316806123ef57634e487b7160e01b600052601260045260246000fd5b8060ff84160691505092915050565b60ff818116838216019081111561147857611478611fdd565b60008351612429818460208801611bed565b83519083019061243d818360208801611bed565b01949350505050565b600181815b8085111561248157816000190482111561246757612467611fdd565b8085161561247457918102915b93841c939080029061244b565b509250929050565b60008261249857506001611478565b816124a557506000611478565b81600181146124bb57600281146124c5576124e1565b6001915050611478565b60ff8411156124d6576124d6611fdd565b50506001821b611478565b5060208310610133831016604e8410600b8410161715612504575081810a611478565b61250e8383612446565b806000190482111561252257612522611fdd565b029392505050565b60006117be838361248956fe2e2f6c69622f666f756e6472792d687566662f736372697074732f62696e6172795f636865636b2e73682e2f6c69622f666f756e6472792d687566662f736372697074732f66696c655f7772697465722e73682e2f6c69622f666f756e6472792d687566662f736372697074732f726561645f616e645f617070656e642e73682e2f6c69622f666f756e6472792d687566662f736372697074732f72616e645f62797465732e7368a2646970667358221220d4ebbd05d2c3e289398f14d5696534d322f28bdec6c38b358e76a35e3317a7d864736f6c63430008110033",
    "linkReferences": {}
  },
  "methodIdentifiers": {
    "args()": "4e9b75b6",
    "binary_check()": "c5effd02",
    "bytesToString(bytes)": "39614e4f",
    "code()": "24c12bf6",
    "const_overrides(uint256)": "0c7d1681",
    "creation_code(string)": "220481ef",
    "creation_code_with_args(string)": "0cc76616",
    "deploy(string)": "c7602316",
    "deployer()": "d5f39488",
    "set_broadcast(bool)": "df9f3dee",
    "should_broadcast()": "e9e68e1d",
    "value()": "3fa4f245",
    "vm()": "3a768463",
    "with_addr_constant(string,address)": "6fcef9d5",
    "with_args(bytes)": "28764d14",
    "with_bytes32_constant(string,bytes32)": "e5df3076",
    "with_code(string)": "2232d908",
    "with_constant(string,string)": "8093a1b9",
    "with_deployer(address)": "92bb10d7",
    "with_uint_constant(string,uint256)": "6b07af10",
    "with_value(uint256)": "7dc2225f"
  },
  "id": 19
}